{
  "contractName": "AssetProof",
  "abi": [
    {
      "constant": true,
      "inputs": [
        {
          "name": "_userAddress",
          "type": "address"
        }
      ],
      "name": "_getUserInformation",
      "outputs": [
        {
          "name": "name",
          "type": "string"
        },
        {
          "name": "phoneNumber",
          "type": "string"
        },
        {
          "name": "digitalIdentity",
          "type": "string"
        },
        {
          "name": "idNumber",
          "type": "string"
        }
      ],
      "payable": false,
      "stateMutability": "view",
      "type": "function"
    },
    {
      "constant": true,
      "inputs": [
        {
          "name": "",
          "type": "address"
        }
      ],
      "name": "planAsset",
      "outputs": [
        {
          "name": "location",
          "type": "string"
        },
        {
          "name": "approvalNumber",
          "type": "string"
        }
      ],
      "payable": false,
      "stateMutability": "view",
      "type": "function"
    },
    {
      "constant": true,
      "inputs": [
        {
          "name": "",
          "type": "address"
        }
      ],
      "name": "assetOwner",
      "outputs": [
        {
          "name": "name",
          "type": "string"
        },
        {
          "name": "phoneNumber",
          "type": "string"
        },
        {
          "name": "digitalIdentity",
          "type": "string"
        },
        {
          "name": "idNumber",
          "type": "string"
        }
      ],
      "payable": false,
      "stateMutability": "view",
      "type": "function"
    },
    {
      "constant": false,
      "inputs": [
        {
          "name": "_name",
          "type": "string"
        },
        {
          "name": "_phoneNumber",
          "type": "string"
        },
        {
          "name": "_digitalIdentity",
          "type": "string"
        },
        {
          "name": "_idNumber",
          "type": "string"
        }
      ],
      "name": "_setUser",
      "outputs": [],
      "payable": false,
      "stateMutability": "nonpayable",
      "type": "function"
    },
    {
      "anonymous": false,
      "inputs": [
        {
          "indexed": false,
          "name": "_name",
          "type": "string"
        },
        {
          "indexed": false,
          "name": "_phoneNumber",
          "type": "string"
        },
        {
          "indexed": false,
          "name": "_digitalIdentity",
          "type": "string"
        },
        {
          "indexed": false,
          "name": "_idNumber",
          "type": "string"
        }
      ],
      "name": "NewUser",
      "type": "event"
    }
  ],
  "bytecode": "0x6060604052341561000f57600080fd5b610ec58061001e6000396000f300606060405260043610610062576000357c0100000000000000000000000000000000000000000000000000000000900463ffffffff1680631bf5fe9e14610067578063818415751461025d578063ce193173146103b5578063e436cb3e1461061f575b600080fd5b341561007257600080fd5b61009e600480803573ffffffffffffffffffffffffffffffffffffffff16906020019091905050610745565b6040518080602001806020018060200180602001858103855289818151815260200191508051906020019080838360005b838110156100ea5780820151818401526020810190506100cf565b50505050905090810190601f1680156101175780820380516001836020036101000a031916815260200191505b50858103845288818151815260200191508051906020019080838360005b83811015610150578082015181840152602081019050610135565b50505050905090810190601f16801561017d5780820380516001836020036101000a031916815260200191505b50858103835287818151815260200191508051906020019080838360005b838110156101b657808201518184015260208101905061019b565b50505050905090810190601f1680156101e35780820380516001836020036101000a031916815260200191505b50858103825286818151815260200191508051906020019080838360005b8381101561021c578082015181840152602081019050610201565b50505050905090810190601f1680156102495780820380516001836020036101000a031916815260200191505b509850505050505050505060405180910390f35b341561026857600080fd5b610294600480803573ffffffffffffffffffffffffffffffffffffffff16906020019091905050610a71565b6040518080602001806020018381038352858181546001816001161561010002031660029004815260200191508054600181600116156101000203166002900480156103215780601f106102f657610100808354040283529160200191610321565b820191906000526020600020905b81548152906001019060200180831161030457829003601f168201915b50508381038252848181546001816001161561010002031660029004815260200191508054600181600116156101000203166002900480156103a45780601f10610379576101008083540402835291602001916103a4565b820191906000526020600020905b81548152906001019060200180831161038757829003601f168201915b505094505050505060405180910390f35b34156103c057600080fd5b6103ec600480803573ffffffffffffffffffffffffffffffffffffffff16906020019091905050610a93565b60405180806020018060200180602001806020018581038552898181546001816001161561010002031660029004815260200191508054600181600116156101000203166002900480156104815780601f1061045657610100808354040283529160200191610481565b820191906000526020600020905b81548152906001019060200180831161046457829003601f168201915b50508581038452888181546001816001161561010002031660029004815260200191508054600181600116156101000203166002900480156105045780601f106104d957610100808354040283529160200191610504565b820191906000526020600020905b8154815290600101906020018083116104e757829003601f168201915b50508581038352878181546001816001161561010002031660029004815260200191508054600181600116156101000203166002900480156105875780601f1061055c57610100808354040283529160200191610587565b820191906000526020600020905b81548152906001019060200180831161056a57829003601f168201915b505085810382528681815460018160011615610100020316600290048152602001915080546001816001161561010002031660029004801561060a5780601f106105df5761010080835404028352916020019161060a565b820191906000526020600020905b8154815290600101906020018083116105ed57829003601f168201915b50509850505050505050505060405180910390f35b341561062a57600080fd5b610743600480803590602001908201803590602001908080601f0160208091040260200160405190810160405280939291908181526020018383808284378201915050505050509190803590602001908201803590602001908080601f0160208091040260200160405190810160405280939291908181526020018383808284378201915050505050509190803590602001908201803590602001908080601f0160208091040260200160405190810160405280939291908181526020018383808284378201915050505050509190803590602001908201803590602001908080601f01602080910402602001604051908101604052809392919081815260200183838082843782019150505050505091905050610abf565b005b61074d610d8b565b610755610d8b565b61075d610d8b565b610765610d8b565b61076d610d9f565b6000808773ffffffffffffffffffffffffffffffffffffffff1673ffffffffffffffffffffffffffffffffffffffff16815260200190815260200160002060806040519081016040529081600082018054600181600116156101000203166002900480601f0160208091040260200160405190810160405280929190818152602001828054600181600116156101000203166002900480156108505780601f1061082557610100808354040283529160200191610850565b820191906000526020600020905b81548152906001019060200180831161083357829003601f168201915b50505050508152602001600182018054600181600116156101000203166002900480601f0160208091040260200160405190810160405280929190818152602001828054600181600116156101000203166002900480156108f25780601f106108c7576101008083540402835291602001916108f2565b820191906000526020600020905b8154815290600101906020018083116108d557829003601f168201915b50505050508152602001600282018054600181600116156101000203166002900480601f0160208091040260200160405190810160405280929190818152602001828054600181600116156101000203166002900480156109945780601f1061096957610100808354040283529160200191610994565b820191906000526020600020905b81548152906001019060200180831161097757829003601f168201915b50505050508152602001600382018054600181600116156101000203166002900480601f016020809104026020016040519081016040528092919081815260200182805460018160011615610100020316600290048015610a365780601f10610a0b57610100808354040283529160200191610a36565b820191906000526020600020905b815481529060010190602001808311610a1957829003601f168201915b505050505081525050905080600001518160200151826040015183606001518393508292508191508090509450945094509450509193509193565b6001602052806000526040600020600091509050806000019080600101905082565b600060205280600052604060002060009150905080600001908060010190806002019080600301905084565b610ac7610d9f565b608060405190810160405280868152602001858152602001848152602001838152509050806000803373ffffffffffffffffffffffffffffffffffffffff1673ffffffffffffffffffffffffffffffffffffffff1681526020019081526020016000206000820151816000019080519060200190610b46929190610de0565b506020820151816001019080519060200190610b63929190610de0565b506040820151816002019080519060200190610b80929190610de0565b506060820151816003019080519060200190610b9d929190610de0565b509050507f90551e014392a32d6cfd2365d4fd4e8e221b26a79274eed62df459e23554bb62858585856040518080602001806020018060200180602001858103855289818151815260200191508051906020019080838360005b83811015610c12578082015181840152602081019050610bf7565b50505050905090810190601f168015610c3f5780820380516001836020036101000a031916815260200191505b50858103845288818151815260200191508051906020019080838360005b83811015610c78578082015181840152602081019050610c5d565b50505050905090810190601f168015610ca55780820380516001836020036101000a031916815260200191505b50858103835287818151815260200191508051906020019080838360005b83811015610cde578082015181840152602081019050610cc3565b50505050905090810190601f168015610d0b5780820380516001836020036101000a031916815260200191505b50858103825286818151815260200191508051906020019080838360005b83811015610d44578082015181840152602081019050610d29565b50505050905090810190601f168015610d715780820380516001836020036101000a031916815260200191505b509850505050505050505060405180910390a15050505050565b602060405190810160405280600081525090565b608060405190810160405280610db3610e60565b8152602001610dc0610e60565b8152602001610dcd610e60565b8152602001610dda610e60565b81525090565b828054600181600116156101000203166002900490600052602060002090601f016020900481019282601f10610e2157805160ff1916838001178555610e4f565b82800160010185558215610e4f579182015b82811115610e4e578251825591602001919060010190610e33565b5b509050610e5c9190610e74565b5090565b602060405190810160405280600081525090565b610e9691905b80821115610e92576000816000905550600101610e7a565b5090565b905600a165627a7a72305820eea4c66ee6e80fc2dd0e62d9a69cec968576e444225d6decb75673c7a27f3c750029",
  "source": "pragma solidity ^0.4.17;\n\ncontract AssetProof{\n    event NewUser(string _name, string _phoneNumber, string _digitalIdentity,string _idNumber);\n\tstruct User{\n\t   string name;\n\t   string phoneNumber;\n\t   string digitalIdentity;\n\t   string idNumber;\n\t}\n\n\tstruct Station{\n\t   string location;\n\t   string approvalNumber;\n\t}\n\t\n\tmapping(address=>User) public assetOwner;\n    mapping(address=>Station) public planAsset;\n    \n    function _setUser(string _name, string _phoneNumber, string _digitalIdentity,string _idNumber)public {\n       User memory _user = User(_name, _phoneNumber,_digitalIdentity,_idNumber);\n\n       assetOwner[msg.sender] = _user;\n\n       NewUser(_name, _phoneNumber,_digitalIdentity,_idNumber);\n    }\n\n\tfunction _getUserInformation(address _userAddress) public view returns(string name,string phoneNumber,string digitalIdentity,string idNumber){\n\t   User memory aUser = assetOwner[_userAddress];\n\t   return (aUser.name,aUser.phoneNumber, aUser.digitalIdentity, aUser.idNumber);\n\t}\n}",
  "sourcePath": "/Users/u-en/Desktop/AssetsProof/contracts/AssetProof.sol",
  "compiler": {
    "name": "solc",
    "version": "0.4.18+commit.9cf6e910.Emscripten.clang"
  },
  "schemaVersion": "1.0.1",
  "updatedAt": "2018-07-10T02:03:05.989Z"
}